{
  "_format": "hh-sol-artifact-1",
  "contractName": "Voting",
  "sourceName": "contracts/Voting.sol",
  "abi": [
    {
      "inputs": [
        {
          "internalType": "string[]",
          "name": "candidateNames",
          "type": "string[]"
        }
      ],
      "stateMutability": "nonpayable",
      "type": "constructor"
    },
    {
      "inputs": [],
      "name": "admin",
      "outputs": [
        {
          "internalType": "address",
          "name": "",
          "type": "address"
        }
      ],
      "stateMutability": "view",
      "type": "function"
    },
    {
      "inputs": [
        {
          "internalType": "uint256",
          "name": "",
          "type": "uint256"
        }
      ],
      "name": "candidates",
      "outputs": [
        {
          "internalType": "string",
          "name": "name",
          "type": "string"
        },
        {
          "internalType": "uint256",
          "name": "voteCount",
          "type": "uint256"
        }
      ],
      "stateMutability": "view",
      "type": "function"
    },
    {
      "inputs": [
        {
          "internalType": "uint256",
          "name": "index",
          "type": "uint256"
        }
      ],
      "name": "getCandidate",
      "outputs": [
        {
          "internalType": "string",
          "name": "",
          "type": "string"
        },
        {
          "internalType": "uint256",
          "name": "",
          "type": "uint256"
        }
      ],
      "stateMutability": "view",
      "type": "function"
    },
    {
      "inputs": [],
      "name": "getCandidateCount",
      "outputs": [
        {
          "internalType": "uint256",
          "name": "",
          "type": "uint256"
        }
      ],
      "stateMutability": "view",
      "type": "function"
    },
    {
      "inputs": [
        {
          "internalType": "address",
          "name": "_voter",
          "type": "address"
        }
      ],
      "name": "registerVoter",
      "outputs": [],
      "stateMutability": "nonpayable",
      "type": "function"
    },
    {
      "inputs": [
        {
          "internalType": "uint256",
          "name": "candidateIndex",
          "type": "uint256"
        }
      ],
      "name": "vote",
      "outputs": [],
      "stateMutability": "nonpayable",
      "type": "function"
    },
    {
      "inputs": [
        {
          "internalType": "address",
          "name": "",
          "type": "address"
        }
      ],
      "name": "voters",
      "outputs": [
        {
          "internalType": "bool",
          "name": "isRegistered",
          "type": "bool"
        },
        {
          "internalType": "bool",
          "name": "hasVoted",
          "type": "bool"
        }
      ],
      "stateMutability": "view",
      "type": "function"
    }
  ],
  "bytecode": "0x60806040523480156200001157600080fd5b50604051620012f6380380620012f68339818101604052810190620000379190620003b3565b336000806101000a81548173ffffffffffffffffffffffffffffffffffffffff021916908373ffffffffffffffffffffffffffffffffffffffff16021790555060005b81518110156200011c5760026040518060400160405280848481518110620000a757620000a662000404565b5b60200260200101518152602001600081525090806001815401808255809150506001900390600052602060002090600202016000909190919091506000820151816000019081620000f991906200067e565b506020820151816001015550508080620001139062000794565b9150506200007a565b5050620007e1565b6000604051905090565b600080fd5b600080fd5b600080fd5b6000601f19601f8301169050919050565b7f4e487b7100000000000000000000000000000000000000000000000000000000600052604160045260246000fd5b62000188826200013d565b810181811067ffffffffffffffff82111715620001aa57620001a96200014e565b5b80604052505050565b6000620001bf62000124565b9050620001cd82826200017d565b919050565b600067ffffffffffffffff821115620001f057620001ef6200014e565b5b602082029050602081019050919050565b600080fd5b600080fd5b600067ffffffffffffffff8211156200022957620002286200014e565b5b62000234826200013d565b9050602081019050919050565b60005b838110156200026157808201518184015260208101905062000244565b60008484015250505050565b6000620002846200027e846200020b565b620001b3565b905082815260208101848484011115620002a357620002a262000206565b5b620002b084828562000241565b509392505050565b600082601f830112620002d057620002cf62000138565b5b8151620002e28482602086016200026d565b91505092915050565b600062000302620002fc84620001d2565b620001b3565b9050808382526020820190506020840283018581111562000328576200032762000201565b5b835b818110156200037657805167ffffffffffffffff81111562000351576200035062000138565b5b808601620003608982620002b8565b855260208501945050506020810190506200032a565b5050509392505050565b600082601f83011262000398576200039762000138565b5b8151620003aa848260208601620002eb565b91505092915050565b600060208284031215620003cc57620003cb6200012e565b5b600082015167ffffffffffffffff811115620003ed57620003ec62000133565b5b620003fb8482850162000380565b91505092915050565b7f4e487b7100000000000000000000000000000000000000000000000000000000600052603260045260246000fd5b600081519050919050565b7f4e487b7100000000000000000000000000000000000000000000000000000000600052602260045260246000fd5b600060028204905060018216806200048657607f821691505b6020821081036200049c576200049b6200043e565b5b50919050565b60008190508160005260206000209050919050565b60006020601f8301049050919050565b600082821b905092915050565b600060088302620005067fffffffffffffffffffffffffffffffffffffffffffffffffffffffffffffffff82620004c7565b620005128683620004c7565b95508019841693508086168417925050509392505050565b6000819050919050565b6000819050919050565b60006200055f6200055962000553846200052a565b62000534565b6200052a565b9050919050565b6000819050919050565b6200057b836200053e565b620005936200058a8262000566565b848454620004d4565b825550505050565b600090565b620005aa6200059b565b620005b781848462000570565b505050565b5b81811015620005df57620005d3600082620005a0565b600181019050620005bd565b5050565b601f8211156200062e57620005f881620004a2565b6200060384620004b7565b8101602085101562000613578190505b6200062b6200062285620004b7565b830182620005bc565b50505b505050565b600082821c905092915050565b6000620006536000198460080262000633565b1980831691505092915050565b60006200066e838362000640565b9150826002028217905092915050565b620006898262000433565b67ffffffffffffffff811115620006a557620006a46200014e565b5b620006b182546200046d565b620006be828285620005e3565b600060209050601f831160018114620006f65760008415620006e1578287015190505b620006ed858262000660565b8655506200075d565b601f1984166200070686620004a2565b60005b82811015620007305784890151825560018201915060208501945060208101905062000709565b868310156200075057848901516200074c601f89168262000640565b8355505b6001600288020188555050505b505050505050565b7f4e487b7100000000000000000000000000000000000000000000000000000000600052601160045260246000fd5b6000620007a1826200052a565b91507fffffffffffffffffffffffffffffffffffffffffffffffffffffffffffffffff8203620007d657620007d562000765565b5b600182019050919050565b610b0580620007f16000396000f3fe608060405234801561001057600080fd5b506004361061007d5760003560e01c806335b8e8201161005b57806335b8e820146100ed57806338db6dd31461011e578063a3ec138d1461013a578063f851a4401461016b5761007d565b80630121b93f1461008257806330a563471461009e5780633477ee2e146100bc575b600080fd5b61009c60048036038101906100979190610675565b610189565b005b6100a6610340565b6040516100b391906106b1565b60405180910390f35b6100d660048036038101906100d19190610675565b61034d565b6040516100e492919061075c565b60405180910390f35b61010760048036038101906101029190610675565b610409565b60405161011592919061075c565b60405180910390f35b610138600480360381019061013391906107ea565b6104ed565b005b610154600480360381019061014f91906107ea565b6105d8565b604051610162929190610832565b60405180910390f35b610173610616565b604051610180919061086a565b60405180910390f35b600160003373ffffffffffffffffffffffffffffffffffffffff1673ffffffffffffffffffffffffffffffffffffffff16815260200190815260200160002060000160009054906101000a900460ff16610218576040517f08c379a000000000000000000000000000000000000000000000000000000000815260040161020f906108d1565b60405180910390fd5b600160003373ffffffffffffffffffffffffffffffffffffffff1673ffffffffffffffffffffffffffffffffffffffff16815260200190815260200160002060000160019054906101000a900460ff16156102a8576040517f08c379a000000000000000000000000000000000000000000000000000000000815260040161029f9061093d565b60405180910390fd5b60018060003373ffffffffffffffffffffffffffffffffffffffff1673ffffffffffffffffffffffffffffffffffffffff16815260200190815260200160002060000160016101000a81548160ff021916908315150217905550600281815481106103165761031561095d565b5b90600052602060002090600202016001016000815480929190610338906109bb565b919050555050565b6000600280549050905090565b6002818154811061035d57600080fd5b906000526020600020906002020160009150905080600001805461038090610a32565b80601f01602080910402602001604051908101604052809291908181526020018280546103ac90610a32565b80156103f95780601f106103ce576101008083540402835291602001916103f9565b820191906000526020600020905b8154815290600101906020018083116103dc57829003601f168201915b5050505050908060010154905082565b60606000600283815481106104215761042061095d565b5b9060005260206000209060020201600001600284815481106104465761044561095d565b5b90600052602060002090600202016001015481805461046490610a32565b80601f016020809104026020016040519081016040528092919081815260200182805461049090610a32565b80156104dd5780601f106104b2576101008083540402835291602001916104dd565b820191906000526020600020905b8154815290600101906020018083116104c057829003601f168201915b5050505050915091509150915091565b60008054906101000a900473ffffffffffffffffffffffffffffffffffffffff1673ffffffffffffffffffffffffffffffffffffffff163373ffffffffffffffffffffffffffffffffffffffff161461057b576040517f08c379a000000000000000000000000000000000000000000000000000000000815260040161057290610aaf565b60405180910390fd5b60018060008373ffffffffffffffffffffffffffffffffffffffff1673ffffffffffffffffffffffffffffffffffffffff16815260200190815260200160002060000160006101000a81548160ff02191690831515021790555050565b60016020528060005260406000206000915090508060000160009054906101000a900460ff16908060000160019054906101000a900460ff16905082565b60008054906101000a900473ffffffffffffffffffffffffffffffffffffffff1681565b600080fd5b6000819050919050565b6106528161063f565b811461065d57600080fd5b50565b60008135905061066f81610649565b92915050565b60006020828403121561068b5761068a61063a565b5b600061069984828501610660565b91505092915050565b6106ab8161063f565b82525050565b60006020820190506106c660008301846106a2565b92915050565b600081519050919050565b600082825260208201905092915050565b60005b838110156107065780820151818401526020810190506106eb565b60008484015250505050565b6000601f19601f8301169050919050565b600061072e826106cc565b61073881856106d7565b93506107488185602086016106e8565b61075181610712565b840191505092915050565b600060408201905081810360008301526107768185610723565b905061078560208301846106a2565b9392505050565b600073ffffffffffffffffffffffffffffffffffffffff82169050919050565b60006107b78261078c565b9050919050565b6107c7816107ac565b81146107d257600080fd5b50565b6000813590506107e4816107be565b92915050565b600060208284031215610800576107ff61063a565b5b600061080e848285016107d5565b91505092915050565b60008115159050919050565b61082c81610817565b82525050565b60006040820190506108476000830185610823565b6108546020830184610823565b9392505050565b610864816107ac565b82525050565b600060208201905061087f600083018461085b565b92915050565b7f4e6f742072656769737465726564000000000000000000000000000000000000600082015250565b60006108bb600e836106d7565b91506108c682610885565b602082019050919050565b600060208201905081810360008301526108ea816108ae565b9050919050565b7f416c726561647920766f74656400000000000000000000000000000000000000600082015250565b6000610927600d836106d7565b9150610932826108f1565b602082019050919050565b600060208201905081810360008301526109568161091a565b9050919050565b7f4e487b7100000000000000000000000000000000000000000000000000000000600052603260045260246000fd5b7f4e487b7100000000000000000000000000000000000000000000000000000000600052601160045260246000fd5b60006109c68261063f565b91507fffffffffffffffffffffffffffffffffffffffffffffffffffffffffffffffff82036109f8576109f761098c565b5b600182019050919050565b7f4e487b7100000000000000000000000000000000000000000000000000000000600052602260045260246000fd5b60006002820490506001821680610a4a57607f821691505b602082108103610a5d57610a5c610a03565b5b50919050565b7f4f6e6c792061646d696e2063616e20726567697374657220766f746572730000600082015250565b6000610a99601e836106d7565b9150610aa482610a63565b602082019050919050565b60006020820190508181036000830152610ac881610a8c565b905091905056fea26469706673582212208c82538fa32a26bc6cdaf72b9b33a9bc46f58726a91a1a50cae49a86b019978e64736f6c63430008140033",
  "linkReferences": {},
  "deployedLinkReferences": {}
}